{
  "address": "0x5FbDB2315678afecb367f032d93F642f64180aa3",
  "abi": [
    {
      "inputs": [],
      "stateMutability": "nonpayable",
      "type": "constructor"
    },
    {
      "anonymous": false,
      "inputs": [
        {
          "indexed": true,
          "internalType": "address",
          "name": "owner",
          "type": "address"
        },
        {
          "indexed": true,
          "internalType": "address",
          "name": "approved",
          "type": "address"
        },
        {
          "indexed": true,
          "internalType": "uint256",
          "name": "tokenId",
          "type": "uint256"
        }
      ],
      "name": "Approval",
      "type": "event"
    },
    {
      "anonymous": false,
      "inputs": [
        {
          "indexed": true,
          "internalType": "address",
          "name": "owner",
          "type": "address"
        },
        {
          "indexed": true,
          "internalType": "address",
          "name": "operator",
          "type": "address"
        },
        {
          "indexed": false,
          "internalType": "bool",
          "name": "approved",
          "type": "bool"
        }
      ],
      "name": "ApprovalForAll",
      "type": "event"
    },
    {
      "anonymous": false,
      "inputs": [
        {
          "indexed": true,
          "internalType": "address",
          "name": "token",
          "type": "address"
        },
        {
          "indexed": false,
          "internalType": "uint256",
          "name": "amount",
          "type": "uint256"
        }
      ],
      "name": "ERC20Released",
      "type": "event"
    },
    {
      "anonymous": false,
      "inputs": [
        {
          "indexed": false,
          "internalType": "uint256",
          "name": "amount",
          "type": "uint256"
        }
      ],
      "name": "EtherReleased",
      "type": "event"
    },
    {
      "anonymous": false,
      "inputs": [
        {
          "indexed": true,
          "internalType": "address",
          "name": "from",
          "type": "address"
        },
        {
          "indexed": true,
          "internalType": "address",
          "name": "to",
          "type": "address"
        },
        {
          "indexed": true,
          "internalType": "uint256",
          "name": "tokenId",
          "type": "uint256"
        }
      ],
      "name": "Transfer",
      "type": "event"
    },
    {
      "inputs": [],
      "name": "DURATION_SEC",
      "outputs": [
        {
          "internalType": "uint64",
          "name": "",
          "type": "uint64"
        }
      ],
      "stateMutability": "view",
      "type": "function"
    },
    {
      "inputs": [],
      "name": "MAX_SUPPLY",
      "outputs": [
        {
          "internalType": "uint256",
          "name": "",
          "type": "uint256"
        }
      ],
      "stateMutability": "view",
      "type": "function"
    },
    {
      "inputs": [],
      "name": "MINT_PRICE",
      "outputs": [
        {
          "internalType": "uint256",
          "name": "",
          "type": "uint256"
        }
      ],
      "stateMutability": "view",
      "type": "function"
    },
    {
      "inputs": [],
      "name": "REPORT_THRESHOLD",
      "outputs": [
        {
          "internalType": "uint256",
          "name": "",
          "type": "uint256"
        }
      ],
      "stateMutability": "view",
      "type": "function"
    },
    {
      "inputs": [
        {
          "internalType": "address",
          "name": "to",
          "type": "address"
        },
        {
          "internalType": "uint256",
          "name": "tokenId",
          "type": "uint256"
        }
      ],
      "name": "approve",
      "outputs": [],
      "stateMutability": "nonpayable",
      "type": "function"
    },
    {
      "inputs": [
        {
          "internalType": "address",
          "name": "owner",
          "type": "address"
        }
      ],
      "name": "balanceOf",
      "outputs": [
        {
          "internalType": "uint256",
          "name": "",
          "type": "uint256"
        }
      ],
      "stateMutability": "view",
      "type": "function"
    },
    {
      "inputs": [],
      "name": "beneficiary",
      "outputs": [
        {
          "internalType": "address",
          "name": "",
          "type": "address"
        }
      ],
      "stateMutability": "view",
      "type": "function"
    },
    {
      "inputs": [],
      "name": "duration",
      "outputs": [
        {
          "internalType": "uint256",
          "name": "",
          "type": "uint256"
        }
      ],
      "stateMutability": "view",
      "type": "function"
    },
    {
      "inputs": [
        {
          "internalType": "uint256",
          "name": "tokenId",
          "type": "uint256"
        }
      ],
      "name": "getApproved",
      "outputs": [
        {
          "internalType": "address",
          "name": "",
          "type": "address"
        }
      ],
      "stateMutability": "view",
      "type": "function"
    },
    {
      "inputs": [
        {
          "internalType": "address",
          "name": "owner",
          "type": "address"
        },
        {
          "internalType": "address",
          "name": "operator",
          "type": "address"
        }
      ],
      "name": "isApprovedForAll",
      "outputs": [
        {
          "internalType": "bool",
          "name": "",
          "type": "bool"
        }
      ],
      "stateMutability": "view",
      "type": "function"
    },
    {
      "inputs": [
        {
          "internalType": "uint256",
          "name": "amount",
          "type": "uint256"
        }
      ],
      "name": "mint",
      "outputs": [],
      "stateMutability": "payable",
      "type": "function"
    },
    {
      "inputs": [],
      "name": "name",
      "outputs": [
        {
          "internalType": "string",
          "name": "",
          "type": "string"
        }
      ],
      "stateMutability": "view",
      "type": "function"
    },
    {
      "inputs": [
        {
          "internalType": "uint256",
          "name": "tokenId",
          "type": "uint256"
        }
      ],
      "name": "ownerOf",
      "outputs": [
        {
          "internalType": "address",
          "name": "",
          "type": "address"
        }
      ],
      "stateMutability": "view",
      "type": "function"
    },
    {
      "inputs": [
        {
          "internalType": "uint256[]",
          "name": "tokenIdList",
          "type": "uint256[]"
        }
      ],
      "name": "reMint",
      "outputs": [],
      "stateMutability": "payable",
      "type": "function"
    },
    {
      "inputs": [],
      "name": "redeem",
      "outputs": [],
      "stateMutability": "nonpayable",
      "type": "function"
    },
    {
      "inputs": [
        {
          "internalType": "uint256[]",
          "name": "tokenIdList",
          "type": "uint256[]"
        }
      ],
      "name": "redeem",
      "outputs": [],
      "stateMutability": "nonpayable",
      "type": "function"
    },
    {
      "inputs": [],
      "name": "redeemable",
      "outputs": [
        {
          "internalType": "bool",
          "name": "",
          "type": "bool"
        }
      ],
      "stateMutability": "view",
      "type": "function"
    },
    {
      "inputs": [
        {
          "internalType": "address",
          "name": "token",
          "type": "address"
        }
      ],
      "name": "release",
      "outputs": [],
      "stateMutability": "nonpayable",
      "type": "function"
    },
    {
      "inputs": [],
      "name": "release",
      "outputs": [],
      "stateMutability": "nonpayable",
      "type": "function"
    },
    {
      "inputs": [],
      "name": "released",
      "outputs": [
        {
          "internalType": "uint256",
          "name": "",
          "type": "uint256"
        }
      ],
      "stateMutability": "view",
      "type": "function"
    },
    {
      "inputs": [
        {
          "internalType": "address",
          "name": "token",
          "type": "address"
        }
      ],
      "name": "released",
      "outputs": [
        {
          "internalType": "uint256",
          "name": "",
          "type": "uint256"
        }
      ],
      "stateMutability": "view",
      "type": "function"
    },
    {
      "inputs": [
        {
          "internalType": "uint256[]",
          "name": "tokenIdList",
          "type": "uint256[]"
        }
      ],
      "name": "report",
      "outputs": [],
      "stateMutability": "nonpayable",
      "type": "function"
    },
    {
      "inputs": [
        {
          "internalType": "address",
          "name": "",
          "type": "address"
        }
      ],
      "name": "returningValue",
      "outputs": [
        {
          "internalType": "uint256",
          "name": "",
          "type": "uint256"
        }
      ],
      "stateMutability": "view",
      "type": "function"
    },
    {
      "inputs": [
        {
          "internalType": "address",
          "name": "from",
          "type": "address"
        },
        {
          "internalType": "address",
          "name": "to",
          "type": "address"
        },
        {
          "internalType": "uint256",
          "name": "tokenId",
          "type": "uint256"
        }
      ],
      "name": "safeTransferFrom",
      "outputs": [],
      "stateMutability": "nonpayable",
      "type": "function"
    },
    {
      "inputs": [
        {
          "internalType": "address",
          "name": "from",
          "type": "address"
        },
        {
          "internalType": "address",
          "name": "to",
          "type": "address"
        },
        {
          "internalType": "uint256",
          "name": "tokenId",
          "type": "uint256"
        },
        {
          "internalType": "bytes",
          "name": "_data",
          "type": "bytes"
        }
      ],
      "name": "safeTransferFrom",
      "outputs": [],
      "stateMutability": "nonpayable",
      "type": "function"
    },
    {
      "inputs": [
        {
          "internalType": "address",
          "name": "operator",
          "type": "address"
        },
        {
          "internalType": "bool",
          "name": "approved",
          "type": "bool"
        }
      ],
      "name": "setApprovalForAll",
      "outputs": [],
      "stateMutability": "nonpayable",
      "type": "function"
    },
    {
      "inputs": [],
      "name": "setRedeemable",
      "outputs": [],
      "stateMutability": "nonpayable",
      "type": "function"
    },
    {
      "inputs": [],
      "name": "start",
      "outputs": [
        {
          "internalType": "uint256",
          "name": "",
          "type": "uint256"
        }
      ],
      "stateMutability": "view",
      "type": "function"
    },
    {
      "inputs": [
        {
          "internalType": "bytes4",
          "name": "interfaceId",
          "type": "bytes4"
        }
      ],
      "name": "supportsInterface",
      "outputs": [
        {
          "internalType": "bool",
          "name": "",
          "type": "bool"
        }
      ],
      "stateMutability": "view",
      "type": "function"
    },
    {
      "inputs": [],
      "name": "symbol",
      "outputs": [
        {
          "internalType": "string",
          "name": "",
          "type": "string"
        }
      ],
      "stateMutability": "view",
      "type": "function"
    },
    {
      "inputs": [],
      "name": "threshold",
      "outputs": [
        {
          "internalType": "uint256",
          "name": "",
          "type": "uint256"
        }
      ],
      "stateMutability": "view",
      "type": "function"
    },
    {
      "inputs": [
        {
          "internalType": "uint256",
          "name": "index",
          "type": "uint256"
        }
      ],
      "name": "tokenByIndex",
      "outputs": [
        {
          "internalType": "uint256",
          "name": "",
          "type": "uint256"
        }
      ],
      "stateMutability": "view",
      "type": "function"
    },
    {
      "inputs": [
        {
          "internalType": "uint256",
          "name": "",
          "type": "uint256"
        }
      ],
      "name": "tokenMintPrice",
      "outputs": [
        {
          "internalType": "uint256",
          "name": "",
          "type": "uint256"
        }
      ],
      "stateMutability": "view",
      "type": "function"
    },
    {
      "inputs": [
        {
          "internalType": "address",
          "name": "owner",
          "type": "address"
        },
        {
          "internalType": "uint256",
          "name": "index",
          "type": "uint256"
        }
      ],
      "name": "tokenOfOwnerByIndex",
      "outputs": [
        {
          "internalType": "uint256",
          "name": "",
          "type": "uint256"
        }
      ],
      "stateMutability": "view",
      "type": "function"
    },
    {
      "inputs": [
        {
          "internalType": "uint256",
          "name": "tokenId",
          "type": "uint256"
        }
      ],
      "name": "tokenURI",
      "outputs": [
        {
          "internalType": "string",
          "name": "",
          "type": "string"
        }
      ],
      "stateMutability": "view",
      "type": "function"
    },
    {
      "inputs": [],
      "name": "totalReportAmount",
      "outputs": [
        {
          "internalType": "uint256",
          "name": "",
          "type": "uint256"
        }
      ],
      "stateMutability": "view",
      "type": "function"
    },
    {
      "inputs": [],
      "name": "totalSupply",
      "outputs": [
        {
          "internalType": "uint256",
          "name": "",
          "type": "uint256"
        }
      ],
      "stateMutability": "view",
      "type": "function"
    },
    {
      "inputs": [
        {
          "internalType": "address",
          "name": "from",
          "type": "address"
        },
        {
          "internalType": "address",
          "name": "to",
          "type": "address"
        },
        {
          "internalType": "uint256",
          "name": "tokenId",
          "type": "uint256"
        }
      ],
      "name": "transferFrom",
      "outputs": [],
      "stateMutability": "nonpayable",
      "type": "function"
    },
    {
      "inputs": [
        {
          "internalType": "uint64",
          "name": "timestamp",
          "type": "uint64"
        }
      ],
      "name": "vestedAmount",
      "outputs": [
        {
          "internalType": "uint256",
          "name": "",
          "type": "uint256"
        }
      ],
      "stateMutability": "view",
      "type": "function"
    },
    {
      "inputs": [
        {
          "internalType": "address",
          "name": "token",
          "type": "address"
        },
        {
          "internalType": "uint64",
          "name": "timestamp",
          "type": "uint64"
        }
      ],
      "name": "vestedAmount",
      "outputs": [
        {
          "internalType": "uint256",
          "name": "",
          "type": "uint256"
        }
      ],
      "stateMutability": "view",
      "type": "function"
    },
    {
      "stateMutability": "payable",
      "type": "receive"
    }
  ],
  "transactionHash": "0x234cec863acb65fed4ae27b156200c7340925469dc54580e0341cc7ea7ec3953",
  "args": [],
  "numDeployments": 1,
  "solcInputHash": "67fcd2de879020317ed766650720fe2a",
  "bytecode": "0x6101006040523480156200001257600080fd5b50601433604080518082018252600a815269293ab3a3b934b83832b960b11b60208083019182528351808501909452600384526252754760e81b908401528151429362093a80939290916200006a9160009162000138565b5080516200008090600190602084019062000138565b5050506001600160a01b038316620000f15760405162461bcd60e51b815260206004820152602a60248201527f56657374696e6757616c6c65743a2062656e6566696369617279206973207a65604482015269726f206164647265737360b01b606482015260840160405180910390fd5b60609290921b6001600160601b03191660805260c090811b6001600160c01b031990811660a05291811b909116905260e052600d805460ff191690556000600e556200021b565b8280546200014690620001de565b90600052602060002090601f0160209004810192826200016a5760008555620001b5565b82601f106200018557805160ff1916838001178555620001b5565b82800160010185558215620001b5579182015b82811115620001b557825182559160200191906001019062000198565b50620001c3929150620001c7565b5090565b5b80821115620001c35760008155600101620001c8565b600181811c90821680620001f357607f821691505b602082108114156200021557634e487b7160e01b600052602260045260246000fd5b50919050565b60805160601c60a05160c01c60c05160c01c60e051612a3a62000281600039600081816104850152610b3001526000818161033901528181611607015261165c0152600061130201526000818161042f01528181610ad40152610f130152612a3a6000f3fe60806040526004361061023f5760003560e01c8063810ec23b1161012e578063b88d4fde116100ab578063cf21ed7f1161006f578063cf21ed7f146106ca578063e0625ead146106e0578063e985e9c51461070d578063f9afb26a14610756578063fcc048911461077657600080fd5b8063b88d4fde14610644578063be040fb014610664578063be9a655514610679578063c002d23d1461068e578063c87b56dd146106aa57600080fd5b80639852595c116100f25780639852595c1461058e5780639f3bfb9a146105c4578063a0712d68146105e4578063a22cb465146105f7578063b462c28d1461061757600080fd5b8063810ec23b1461051c57806386d1a69f1461053c57806395d89b4114610551578063961325211461056657806396cbbeac1461057b57600080fd5b80632d7ecd11116101bc57806342cde4e81161018057806342cde4e8146104735780634aa06447146104a75780634f6ccce7146104bc5780636352211e146104dc57806370a08231146104fc57600080fd5b80632d7ecd11146103d15780632f745c59146103eb57806332cb6b0c1461040b57806338af3eed1461042057806342842e0e1461045357600080fd5b80630fb5a6b4116102035780630fb5a6b41461032a57806318160ddd14610367578063191655871461037c57806323b872dd1461039c5780632a578cc1146103bc57600080fd5b806301ffc9a71461024b57806306fdde0314610280578063081812fc146102a2578063095ea7b3146102da5780630a17b06b146102fc57600080fd5b3661024657005b600080fd5b34801561025757600080fd5b5061026b6102663660046126ba565b6107a6565b60405190151581526020015b60405180910390f35b34801561028c57600080fd5b506102956107d1565b60405161027791906127f0565b3480156102ae57600080fd5b506102c26102bd3660046126f2565b610863565b6040516001600160a01b039091168152602001610277565b3480156102e657600080fd5b506102fa6102f53660046125dc565b6108fd565b005b34801561030857600080fd5b5061031c610317366004612722565b610a13565b604051908152602001610277565b34801561033657600080fd5b507f000000000000000000000000000000000000000000000000000000000000000067ffffffffffffffff1661031c565b34801561037357600080fd5b5060085461031c565b34801561038857600080fd5b506102fa61039736600461244a565b610a31565b3480156103a857600080fd5b506102fa6103b7366004612496565b610afd565b3480156103c857600080fd5b506102fa610b2e565b3480156103dd57600080fd5b50600d5461026b9060ff1681565b3480156103f757600080fd5b5061031c6104063660046125dc565b610baf565b34801561041757600080fd5b5061031c606481565b34801561042c57600080fd5b507f00000000000000000000000000000000000000000000000000000000000000006102c2565b34801561045f57600080fd5b506102fa61046e366004612496565b610c45565b34801561047f57600080fd5b5061031c7f000000000000000000000000000000000000000000000000000000000000000081565b3480156104b357600080fd5b5061031c601481565b3480156104c857600080fd5b5061031c6104d73660046126f2565b610c60565b3480156104e857600080fd5b506102c26104f73660046126f2565b610d01565b34801561050857600080fd5b5061031c61051736600461244a565b610d78565b34801561052857600080fd5b5061031c610537366004612605565b610dff565b34801561054857600080fd5b506102fa610ea4565b34801561055d57600080fd5b50610295610f3b565b34801561057257600080fd5b50600a5461031c565b6102fa61058936600461262e565b610f4a565b34801561059a57600080fd5b5061031c6105a936600461244a565b6001600160a01b03166000908152600b602052604090205490565b3480156105d057600080fd5b506102fa6105df36600461262e565b611066565b6102fa6105f23660046126f2565b611168565b34801561060357600080fd5b506102fa6106123660046125a6565b611248565b34801561062357600080fd5b5061031c61063236600461244a565b600f6020526000908152604090205481565b34801561065057600080fd5b506102fa61065f3660046124d1565b611253565b34801561067057600080fd5b506102fa611285565b34801561068557600080fd5b5061031c6112f7565b34801561069a57600080fd5b5061031c67016345785d8a000081565b3480156106b657600080fd5b506102956106c53660046126f2565b611325565b3480156106d657600080fd5b5061031c600e5481565b3480156106ec57600080fd5b5061031c6106fb3660046126f2565b600c6020526000908152604090205481565b34801561071957600080fd5b5061026b610728366004612464565b6001600160a01b03918216600090815260056020908152604080832093909416825291909152205460ff1690565b34801561076257600080fd5b506102fa61077136600461262e565b61140c565b34801561078257600080fd5b5061078d62093a8081565b60405167ffffffffffffffff9091168152602001610277565b60006001600160e01b0319821663780e9d6360e01b14806107cb57506107cb82611524565b92915050565b6060600080546107e090612934565b80601f016020809104026020016040519081016040528092919081815260200182805461080c90612934565b80156108595780601f1061082e57610100808354040283529160200191610859565b820191906000526020600020905b81548152906001019060200180831161083c57829003601f168201915b5050505050905090565b6000818152600260205260408120546001600160a01b03166108e15760405162461bcd60e51b815260206004820152602c60248201527f4552433732313a20617070726f76656420717565727920666f72206e6f6e657860448201526b34b9ba32b73a103a37b5b2b760a11b60648201526084015b60405180910390fd5b506000908152600460205260409020546001600160a01b031690565b600061090882610d01565b9050806001600160a01b0316836001600160a01b031614156109765760405162461bcd60e51b815260206004820152602160248201527f4552433732313a20617070726f76616c20746f2063757272656e74206f776e656044820152603960f91b60648201526084016108d8565b336001600160a01b038216148061099257506109928133610728565b610a045760405162461bcd60e51b815260206004820152603860248201527f4552433732313a20617070726f76652063616c6c6572206973206e6f74206f7760448201527f6e6572206e6f7220617070726f76656420666f7220616c6c000000000000000060648201526084016108d8565b610a0e8383611574565b505050565b60006107cb610a21600a5490565b610a2b90476128a6565b836115e2565b6001600160a01b0381166000908152600b6020526040812054610a548342610dff565b610a5e91906128f1565b6001600160a01b0383166000908152600b6020526040812080549293508392909190610a8b9084906128a6565b90915550506040518181526001600160a01b038316907fc0e523490dd523c33b1878c9eb14ff46991e3f5b2cd33710918618f2a39cba1b9060200160405180910390a2610af9827f0000000000000000000000000000000000000000000000000000000000000000836116bc565b5050565b610b07338261170e565b610b235760405162461bcd60e51b81526004016108d890612855565b610a0e838383611805565b7f0000000000000000000000000000000000000000000000000000000000000000600e541015610ba05760405162461bcd60e51b815260206004820152601860248201527f5265706f727420616d6f756e74206e6f7420656e6f756768000000000000000060448201526064016108d8565b600d805460ff19166001179055565b6000610bba83610d78565b8210610c1c5760405162461bcd60e51b815260206004820152602b60248201527f455243373231456e756d657261626c653a206f776e657220696e646578206f7560448201526a74206f6620626f756e647360a81b60648201526084016108d8565b506001600160a01b03919091166000908152600660209081526040808320938352929052205490565b610a0e83838360405180602001604052806000815250611253565b6000610c6b60085490565b8210610cce5760405162461bcd60e51b815260206004820152602c60248201527f455243373231456e756d657261626c653a20676c6f62616c20696e646578206f60448201526b7574206f6620626f756e647360a01b60648201526084016108d8565b60088281548110610cef57634e487b7160e01b600052603260045260246000fd5b90600052602060002001549050919050565b6000818152600260205260408120546001600160a01b0316806107cb5760405162461bcd60e51b815260206004820152602960248201527f4552433732313a206f776e657220717565727920666f72206e6f6e657869737460448201526832b73a103a37b5b2b760b91b60648201526084016108d8565b60006001600160a01b038216610de35760405162461bcd60e51b815260206004820152602a60248201527f4552433732313a2062616c616e636520717565727920666f7220746865207a65604482015269726f206164647265737360b01b60648201526084016108d8565b506001600160a01b031660009081526003602052604090205490565b6001600160a01b0382166000908152600b6020526040812054610e9d906040516370a0823160e01b81523060048201526001600160a01b038616906370a082319060240160206040518083038186803b158015610e5b57600080fd5b505afa158015610e6f573d6000803e3d6000fd5b505050506040513d601f19601f82011682018060405250810190610e93919061270a565b610a2b91906128a6565b9392505050565b6000610eaf600a5490565b610eb842610a13565b610ec291906128f1565b905080600a6000828254610ed691906128a6565b90915550506040518181527fda9d4e5f101b8b9b1c5b76d0c5a9f7923571acfc02376aa076b75a8c080c956b9060200160405180910390a1610f387f0000000000000000000000000000000000000000000000000000000000000000826119ac565b50565b6060600180546107e090612934565b806000805b8281101561101d576000858583818110610f7957634e487b7160e01b600052603260045260246000fd5b905060200201359050306001600160a01b0316610f9582610d01565b6001600160a01b031614610fe35760405162461bcd60e51b8152602060048201526015602482015274151bdad95b881b9bdd081a5b8818dbdb9d1c9858dd605a1b60448201526064016108d8565b610fee303383611805565b6000818152600c602052604090205461100790846128a6565b92505080806110159061296f565b915050610f4f565b50803410156110605760405162461bcd60e51b815260206004820152600f60248201526e139bdd08195b9bdd59da08199d5b99608a1b60448201526064016108d8565b50505050565b8060005b8181101561114b57600084848381811061109457634e487b7160e01b600052603260045260246000fd5b9050602002013590506110a43390565b6001600160a01b03166110b682610d01565b6001600160a01b0316146110f85760405162461bcd60e51b81526020600482015260096024820152682737ba1037bbb732b960b91b60448201526064016108d8565b611104335b3083611805565b6000818152600c6020908152604080832054338452600f90925282208054919290916111319084906128a6565b9091555082915061114390508161296f565b91505061106a565b5080600e600082825461115e91906128a6565b9091555050505050565b600061117360085490565b905061118767016345785d8a0000836128d2565b3410156111c85760405162461bcd60e51b815260206004820152600f60248201526e1b9bdd08195b9bdd59da08199d5b99608a1b60448201526064016108d8565b60646111d483836128a6565b11156112165760405162461bcd60e51b8152602060048201526011602482015270657863656564206d617820737570706c7960781b60448201526064016108d8565b60005b82811015610a0e57611238338361122f8161296f565b94506064611ac5565b6112418161296f565b9050611219565b610af9338383611ae2565b61125d338361170e565b6112795760405162461bcd60e51b81526004016108d890612855565b61106084848484611bb1565b600d5460ff166112c85760405162461bcd60e51b815260206004820152600e60248201526d4e6f742072656465656d61626c6560901b60448201526064016108d8565b336000818152600f602052604090205490610f38905b6112e883426115e2565b6112f290846128f1565b6119ac565b67ffffffffffffffff7f00000000000000000000000000000000000000000000000000000000000000001690565b6000818152600260205260409020546060906001600160a01b03166113a45760405162461bcd60e51b815260206004820152602f60248201527f4552433732314d657461646174613a2055524920717565727920666f72206e6f60448201526e3732bc34b9ba32b73a103a37b5b2b760891b60648201526084016108d8565b60006113bb60408051602081019091526000815290565b905060008151116113db5760405180602001604052806000815250610e9d565b806113e584611be4565b6040516020016113f6929190612784565b6040516020818303038152906040529392505050565b600d5460ff1661144f5760405162461bcd60e51b815260206004820152600e60248201526d4e6f742072656465656d61626c6560901b60448201526064016108d8565b806000805b8281101561151a57600085858381811061147e57634e487b7160e01b600052603260045260246000fd5b90506020020135905061148e3390565b6001600160a01b03166114a082610d01565b6001600160a01b0316146114e25760405162461bcd60e51b81526020600482015260096024820152682737ba1037bbb732b960b91b60448201526064016108d8565b6114eb336110fd565b6000818152600c602052604090205461150490846128a6565b92505080806115129061296f565b915050611454565b50611060336112de565b60006001600160e01b031982166380ac58cd60e01b148061155557506001600160e01b03198216635b5e139f60e01b145b806107cb57506301ffc9a760e01b6001600160e01b03198316146107cb565b600081815260046020526040902080546001600160a01b0319166001600160a01b03841690811790915581906115a982610d01565b6001600160a01b03167f8c5be1e5ebec7d5bd14f71427d1e84f3dd0314c0f7b2291e5b200ac8c7c3b92560405160405180910390a45050565b60006115ec6112f7565b8267ffffffffffffffff161015611605575060006107cb565b7f000000000000000000000000000000000000000000000000000000000000000067ffffffffffffffff166116386112f7565b61164291906128a6565b8267ffffffffffffffff16111561165a5750816107cb565b7f000000000000000000000000000000000000000000000000000000000000000067ffffffffffffffff1661168d6112f7565b6116a19067ffffffffffffffff85166128f1565b6116ab90856128d2565b6116b591906128be565b90506107cb565b604080516001600160a01b038416602482015260448082018490528251808303909101815260649091019091526020810180516001600160e01b031663a9059cbb60e01b179052610a0e908490611cfe565b6000818152600260205260408120546001600160a01b03166117875760405162461bcd60e51b815260206004820152602c60248201527f4552433732313a206f70657261746f7220717565727920666f72206e6f6e657860448201526b34b9ba32b73a103a37b5b2b760a11b60648201526084016108d8565b600061179283610d01565b9050806001600160a01b0316846001600160a01b031614806117cd5750836001600160a01b03166117c284610863565b6001600160a01b0316145b806117fd57506001600160a01b0380821660009081526005602090815260408083209388168352929052205460ff165b949350505050565b826001600160a01b031661181882610d01565b6001600160a01b03161461187c5760405162461bcd60e51b815260206004820152602560248201527f4552433732313a207472616e736665722066726f6d20696e636f72726563742060448201526437bbb732b960d91b60648201526084016108d8565b6001600160a01b0382166118de5760405162461bcd60e51b8152602060048201526024808201527f4552433732313a207472616e7366657220746f20746865207a65726f206164646044820152637265737360e01b60648201526084016108d8565b6118e9838383611dd0565b6118f4600082611574565b6001600160a01b038316600090815260036020526040812080546001929061191d9084906128f1565b90915550506001600160a01b038216600090815260036020526040812080546001929061194b9084906128a6565b909155505060008181526002602052604080822080546001600160a01b0319166001600160a01b0386811691821790925591518493918716917fddf252ad1be2c89b69c2b068fc378daa952ba7f163c4a11628f55a4df523b3ef91a4505050565b804710156119fc5760405162461bcd60e51b815260206004820152601d60248201527f416464726573733a20696e73756666696369656e742062616c616e636500000060448201526064016108d8565b6000826001600160a01b03168260405160006040518083038185875af1925050503d8060008114611a49576040519150601f19603f3d011682016040523d82523d6000602084013e611a4e565b606091505b5050905080610a0e5760405162461bcd60e51b815260206004820152603a60248201527f416464726573733a20756e61626c6520746f2073656e642076616c75652c207260448201527f6563697069656e74206d6179206861766520726576657274656400000000000060648201526084016108d8565b611acf8383611e88565b6000918252600c60205260409091205550565b816001600160a01b0316836001600160a01b03161415611b445760405162461bcd60e51b815260206004820152601960248201527f4552433732313a20617070726f766520746f2063616c6c65720000000000000060448201526064016108d8565b6001600160a01b03838116600081815260056020908152604080832094871680845294825291829020805460ff191686151590811790915591519182527f17307eab39ab6107e8899845ad3d59bd9653f200f220920489ca2b5937696c31910160405180910390a3505050565b611bbc848484611805565b611bc884848484611fd6565b6110605760405162461bcd60e51b81526004016108d890612803565b606081611c085750506040805180820190915260018152600360fc1b602082015290565b8160005b8115611c325780611c1c8161296f565b9150611c2b9050600a836128be565b9150611c0c565b60008167ffffffffffffffff811115611c5b57634e487b7160e01b600052604160045260246000fd5b6040519080825280601f01601f191660200182016040528015611c85576020820181803683370190505b5090505b84156117fd57611c9a6001836128f1565b9150611ca7600a8661298a565b611cb29060306128a6565b60f81b818381518110611cd557634e487b7160e01b600052603260045260246000fd5b60200101906001600160f81b031916908160001a905350611cf7600a866128be565b9450611c89565b6000611d53826040518060400160405280602081526020017f5361666545524332303a206c6f772d6c6576656c2063616c6c206661696c6564815250856001600160a01b03166120e39092919063ffffffff16565b805190915015610a0e5780806020019051810190611d71919061269e565b610a0e5760405162461bcd60e51b815260206004820152602a60248201527f5361666545524332303a204552433230206f7065726174696f6e20646964206e6044820152691bdd081cdd58d8d9595960b21b60648201526084016108d8565b6001600160a01b038316611e2b57611e2681600880546000838152600960205260408120829055600182018355919091527ff3f7a9fe364faab93b216da50a3214154f22a0a2b415b23a84c8169e8b636ee30155565b611e4e565b816001600160a01b0316836001600160a01b031614611e4e57611e4e83826120f2565b6001600160a01b038216611e6557610a0e8161218f565b826001600160a01b0316826001600160a01b031614610a0e57610a0e8282612268565b6001600160a01b038216611ede5760405162461bcd60e51b815260206004820181905260248201527f4552433732313a206d696e7420746f20746865207a65726f206164647265737360448201526064016108d8565b6000818152600260205260409020546001600160a01b031615611f435760405162461bcd60e51b815260206004820152601c60248201527f4552433732313a20746f6b656e20616c7265616479206d696e7465640000000060448201526064016108d8565b611f4f60008383611dd0565b6001600160a01b0382166000908152600360205260408120805460019290611f789084906128a6565b909155505060008181526002602052604080822080546001600160a01b0319166001600160a01b03861690811790915590518392907fddf252ad1be2c89b69c2b068fc378daa952ba7f163c4a11628f55a4df523b3ef908290a45050565b60006001600160a01b0384163b156120d857604051630a85bd0160e11b81526001600160a01b0385169063150b7a029061201a9033908990889088906004016127b3565b602060405180830381600087803b15801561203457600080fd5b505af1925050508015612064575060408051601f3d908101601f19168201909252612061918101906126d6565b60015b6120be573d808015612092576040519150601f19603f3d011682016040523d82523d6000602084013e612097565b606091505b5080516120b65760405162461bcd60e51b81526004016108d890612803565b805181602001fd5b6001600160e01b031916630a85bd0160e11b1490506117fd565b506001949350505050565b60606117fd84846000856122ac565b600060016120ff84610d78565b61210991906128f1565b60008381526007602052604090205490915080821461215c576001600160a01b03841660009081526006602090815260408083208584528252808320548484528184208190558352600790915290208190555b5060009182526007602090815260408084208490556001600160a01b039094168352600681528383209183525290812055565b6008546000906121a1906001906128f1565b600083815260096020526040812054600880549394509092849081106121d757634e487b7160e01b600052603260045260246000fd5b90600052602060002001549050806008838154811061220657634e487b7160e01b600052603260045260246000fd5b600091825260208083209091019290925582815260099091526040808220849055858252812055600880548061224c57634e487b7160e01b600052603160045260246000fd5b6001900381819060005260206000200160009055905550505050565b600061227383610d78565b6001600160a01b039093166000908152600660209081526040808320868452825280832085905593825260079052919091209190915550565b60608247101561230d5760405162461bcd60e51b815260206004820152602660248201527f416464726573733a20696e73756666696369656e742062616c616e636520666f6044820152651c8818d85b1b60d21b60648201526084016108d8565b6001600160a01b0385163b6123645760405162461bcd60e51b815260206004820152601d60248201527f416464726573733a2063616c6c20746f206e6f6e2d636f6e747261637400000060448201526064016108d8565b600080866001600160a01b031685876040516123809190612768565b60006040518083038185875af1925050503d80600081146123bd576040519150601f19603f3d011682016040523d82523d6000602084013e6123c2565b606091505b50915091506123d28282866123dd565b979650505050505050565b606083156123ec575081610e9d565b8251156123fc5782518084602001fd5b8160405162461bcd60e51b81526004016108d891906127f0565b80356001600160a01b038116811461242d57600080fd5b919050565b803567ffffffffffffffff8116811461242d57600080fd5b60006020828403121561245b578081fd5b610e9d82612416565b60008060408385031215612476578081fd5b61247f83612416565b915061248d60208401612416565b90509250929050565b6000806000606084860312156124aa578081fd5b6124b384612416565b92506124c160208501612416565b9150604084013590509250925092565b600080600080608085870312156124e6578081fd5b6124ef85612416565b93506124fd60208601612416565b925060408501359150606085013567ffffffffffffffff80821115612520578283fd5b818701915087601f830112612533578283fd5b813581811115612545576125456129ca565b604051601f8201601f19908116603f0116810190838211818310171561256d5761256d6129ca565b816040528281528a6020848701011115612585578586fd5b82602086016020830137918201602001949094529598949750929550505050565b600080604083850312156125b8578182fd5b6125c183612416565b915060208301356125d1816129e0565b809150509250929050565b600080604083850312156125ee578182fd5b6125f783612416565b946020939093013593505050565b60008060408385031215612617578182fd5b61262083612416565b915061248d60208401612432565b60008060208385031215612640578182fd5b823567ffffffffffffffff80821115612657578384fd5b818501915085601f83011261266a578384fd5b813581811115612678578485fd5b8660208260051b850101111561268c578485fd5b60209290920196919550909350505050565b6000602082840312156126af578081fd5b8151610e9d816129e0565b6000602082840312156126cb578081fd5b8135610e9d816129ee565b6000602082840312156126e7578081fd5b8151610e9d816129ee565b600060208284031215612703578081fd5b5035919050565b60006020828403121561271b578081fd5b5051919050565b600060208284031215612733578081fd5b610e9d82612432565b60008151808452612754816020860160208601612908565b601f01601f19169290920160200192915050565b6000825161277a818460208701612908565b9190910192915050565b60008351612796818460208801612908565b8351908301906127aa818360208801612908565b01949350505050565b6001600160a01b03858116825284166020820152604081018390526080606082018190526000906127e69083018461273c565b9695505050505050565b602081526000610e9d602083018461273c565b60208082526032908201527f4552433732313a207472616e7366657220746f206e6f6e20455243373231526560408201527131b2b4bb32b91034b6b83632b6b2b73a32b960711b606082015260800190565b60208082526031908201527f4552433732313a207472616e736665722063616c6c6572206973206e6f74206f6040820152701ddb995c881b9bdc88185c1c1c9bdd9959607a1b606082015260800190565b600082198211156128b9576128b961299e565b500190565b6000826128cd576128cd6129b4565b500490565b60008160001904831182151516156128ec576128ec61299e565b500290565b6000828210156129035761290361299e565b500390565b60005b8381101561292357818101518382015260200161290b565b838111156110605750506000910152565b600181811c9082168061294857607f821691505b6020821081141561296957634e487b7160e01b600052602260045260246000fd5b50919050565b60006000198214156129835761298361299e565b5060010190565b600082612999576129996129b4565b500690565b634e487b7160e01b600052601160045260246000fd5b634e487b7160e01b600052601260045260246000fd5b634e487b7160e01b600052604160045260246000fd5b8015158114610f3857600080fd5b6001600160e01b031981168114610f3857600080fdfea26469706673582212202329527ef8189c7f0358e71087cda6de0a9dd1ae1b57c573d51b19e05167687064736f6c63430008040033",
  "devdoc": {
    "kind": "dev",
    "methods": {
      "approve(address,uint256)": {
        "details": "See {IERC721-approve}."
      },
      "balanceOf(address)": {
        "details": "See {IERC721-balanceOf}."
      },
      "beneficiary()": {
        "details": "Getter for the beneficiary address."
      },
      "constructor": {
        "details": "Setup ERC721, VestingWallet and the report threshold"
      },
      "duration()": {
        "details": "Getter for the vesting duration."
      },
      "getApproved(uint256)": {
        "details": "See {IERC721-getApproved}."
      },
      "isApprovedForAll(address,address)": {
        "details": "See {IERC721-isApprovedForAll}."
      },
      "name()": {
        "details": "See {IERC721Metadata-name}."
      },
      "ownerOf(uint256)": {
        "details": "See {IERC721-ownerOf}."
      },
      "release()": {
        "details": "Release the native token (ether) that have already vested. Emits a {TokensReleased} event."
      },
      "release(address)": {
        "details": "Release the tokens that have already vested. Emits a {TokensReleased} event."
      },
      "released()": {
        "details": "Amount of eth already released"
      },
      "released(address)": {
        "details": "Amount of token already released"
      },
      "safeTransferFrom(address,address,uint256)": {
        "details": "See {IERC721-safeTransferFrom}."
      },
      "safeTransferFrom(address,address,uint256,bytes)": {
        "details": "See {IERC721-safeTransferFrom}."
      },
      "setApprovalForAll(address,bool)": {
        "details": "See {IERC721-setApprovalForAll}."
      },
      "start()": {
        "details": "Getter for the start timestamp."
      },
      "supportsInterface(bytes4)": {
        "details": "See {IERC165-supportsInterface}."
      },
      "symbol()": {
        "details": "See {IERC721Metadata-symbol}."
      },
      "tokenByIndex(uint256)": {
        "details": "See {IERC721Enumerable-tokenByIndex}."
      },
      "tokenOfOwnerByIndex(address,uint256)": {
        "details": "See {IERC721Enumerable-tokenOfOwnerByIndex}."
      },
      "tokenURI(uint256)": {
        "details": "See {IERC721Metadata-tokenURI}."
      },
      "totalSupply()": {
        "details": "See {IERC721Enumerable-totalSupply}."
      },
      "transferFrom(address,address,uint256)": {
        "details": "See {IERC721-transferFrom}."
      },
      "vestedAmount(address,uint64)": {
        "details": "Calculates the amount of tokens that has already vested. Default implementation is a linear vesting curve."
      },
      "vestedAmount(uint64)": {
        "details": "Calculates the amount of ether that has already vested. Default implementation is a linear vesting curve."
      }
    },
    "title": "Testing the usage of ERC721AntiRugPull",
    "version": 1
  },
  "userdoc": {
    "kind": "user",
    "methods": {
      "DURATION_SEC()": {
        "notice": "Duration sec"
      },
      "MAX_SUPPLY()": {
        "notice": "Max supply"
      },
      "MINT_PRICE()": {
        "notice": "Mint price"
      },
      "REPORT_THRESHOLD()": {
        "notice": "Report threshold"
      },
      "mint(uint256)": {
        "notice": "Mint"
      },
      "reMint(uint256[])": {
        "notice": "Re-mint from contract"
      },
      "redeem()": {
        "notice": "Redeem for reporters"
      },
      "redeem(uint256[])": {
        "notice": "Redeem if redeemable (report successfully)"
      },
      "redeemable()": {
        "notice": "If it's redeemable now (report successfully)"
      },
      "report(uint256[])": {
        "notice": "Report using your tokens"
      },
      "returningValue(address)": {
        "notice": "Returning token amount of each reporter"
      },
      "setRedeemable()": {
        "notice": "Set redeemable if report amount exceed threshold"
      },
      "threshold()": {
        "notice": "Thresold of report amount"
      },
      "tokenMintPrice(uint256)": {
        "notice": "Mint price of each token"
      },
      "totalReportAmount()": {
        "notice": "Cumulative report amount"
      }
    },
    "version": 1
  },
  "storageLayout": {
    "storage": [
      {
        "astId": 619,
        "contract": "contracts/mock/ERC721AntiRugPullMock.sol:ERC721AntiRugPullMock",
        "label": "_name",
        "offset": 0,
        "slot": "0",
        "type": "t_string_storage"
      },
      {
        "astId": 621,
        "contract": "contracts/mock/ERC721AntiRugPullMock.sol:ERC721AntiRugPullMock",
        "label": "_symbol",
        "offset": 0,
        "slot": "1",
        "type": "t_string_storage"
      },
      {
        "astId": 625,
        "contract": "contracts/mock/ERC721AntiRugPullMock.sol:ERC721AntiRugPullMock",
        "label": "_owners",
        "offset": 0,
        "slot": "2",
        "type": "t_mapping(t_uint256,t_address)"
      },
      {
        "astId": 629,
        "contract": "contracts/mock/ERC721AntiRugPullMock.sol:ERC721AntiRugPullMock",
        "label": "_balances",
        "offset": 0,
        "slot": "3",
        "type": "t_mapping(t_address,t_uint256)"
      },
      {
        "astId": 633,
        "contract": "contracts/mock/ERC721AntiRugPullMock.sol:ERC721AntiRugPullMock",
        "label": "_tokenApprovals",
        "offset": 0,
        "slot": "4",
        "type": "t_mapping(t_uint256,t_address)"
      },
      {
        "astId": 639,
        "contract": "contracts/mock/ERC721AntiRugPullMock.sol:ERC721AntiRugPullMock",
        "label": "_operatorApprovals",
        "offset": 0,
        "slot": "5",
        "type": "t_mapping(t_address,t_mapping(t_address,t_bool))"
      },
      {
        "astId": 1608,
        "contract": "contracts/mock/ERC721AntiRugPullMock.sol:ERC721AntiRugPullMock",
        "label": "_ownedTokens",
        "offset": 0,
        "slot": "6",
        "type": "t_mapping(t_address,t_mapping(t_uint256,t_uint256))"
      },
      {
        "astId": 1612,
        "contract": "contracts/mock/ERC721AntiRugPullMock.sol:ERC721AntiRugPullMock",
        "label": "_ownedTokensIndex",
        "offset": 0,
        "slot": "7",
        "type": "t_mapping(t_uint256,t_uint256)"
      },
      {
        "astId": 1615,
        "contract": "contracts/mock/ERC721AntiRugPullMock.sol:ERC721AntiRugPullMock",
        "label": "_allTokens",
        "offset": 0,
        "slot": "8",
        "type": "t_array(t_uint256)dyn_storage"
      },
      {
        "astId": 1619,
        "contract": "contracts/mock/ERC721AntiRugPullMock.sol:ERC721AntiRugPullMock",
        "label": "_allTokensIndex",
        "offset": 0,
        "slot": "9",
        "type": "t_mapping(t_uint256,t_uint256)"
      },
      {
        "astId": 20,
        "contract": "contracts/mock/ERC721AntiRugPullMock.sol:ERC721AntiRugPullMock",
        "label": "_released",
        "offset": 0,
        "slot": "10",
        "type": "t_uint256"
      },
      {
        "astId": 24,
        "contract": "contracts/mock/ERC721AntiRugPullMock.sol:ERC721AntiRugPullMock",
        "label": "_erc20Released",
        "offset": 0,
        "slot": "11",
        "type": "t_mapping(t_address,t_uint256)"
      },
      {
        "astId": 2650,
        "contract": "contracts/mock/ERC721AntiRugPullMock.sol:ERC721AntiRugPullMock",
        "label": "tokenMintPrice",
        "offset": 0,
        "slot": "12",
        "type": "t_mapping(t_uint256,t_uint256)"
      },
      {
        "astId": 2653,
        "contract": "contracts/mock/ERC721AntiRugPullMock.sol:ERC721AntiRugPullMock",
        "label": "redeemable",
        "offset": 0,
        "slot": "13",
        "type": "t_bool"
      },
      {
        "astId": 2656,
        "contract": "contracts/mock/ERC721AntiRugPullMock.sol:ERC721AntiRugPullMock",
        "label": "totalReportAmount",
        "offset": 0,
        "slot": "14",
        "type": "t_uint256"
      },
      {
        "astId": 2661,
        "contract": "contracts/mock/ERC721AntiRugPullMock.sol:ERC721AntiRugPullMock",
        "label": "returningValue",
        "offset": 0,
        "slot": "15",
        "type": "t_mapping(t_address,t_uint256)"
      }
    ],
    "types": {
      "t_address": {
        "encoding": "inplace",
        "label": "address",
        "numberOfBytes": "20"
      },
      "t_array(t_uint256)dyn_storage": {
        "base": "t_uint256",
        "encoding": "dynamic_array",
        "label": "uint256[]",
        "numberOfBytes": "32"
      },
      "t_bool": {
        "encoding": "inplace",
        "label": "bool",
        "numberOfBytes": "1"
      },
      "t_mapping(t_address,t_bool)": {
        "encoding": "mapping",
        "key": "t_address",
        "label": "mapping(address => bool)",
        "numberOfBytes": "32",
        "value": "t_bool"
      },
      "t_mapping(t_address,t_mapping(t_address,t_bool))": {
        "encoding": "mapping",
        "key": "t_address",
        "label": "mapping(address => mapping(address => bool))",
        "numberOfBytes": "32",
        "value": "t_mapping(t_address,t_bool)"
      },
      "t_mapping(t_address,t_mapping(t_uint256,t_uint256))": {
        "encoding": "mapping",
        "key": "t_address",
        "label": "mapping(address => mapping(uint256 => uint256))",
        "numberOfBytes": "32",
        "value": "t_mapping(t_uint256,t_uint256)"
      },
      "t_mapping(t_address,t_uint256)": {
        "encoding": "mapping",
        "key": "t_address",
        "label": "mapping(address => uint256)",
        "numberOfBytes": "32",
        "value": "t_uint256"
      },
      "t_mapping(t_uint256,t_address)": {
        "encoding": "mapping",
        "key": "t_uint256",
        "label": "mapping(uint256 => address)",
        "numberOfBytes": "32",
        "value": "t_address"
      },
      "t_mapping(t_uint256,t_uint256)": {
        "encoding": "mapping",
        "key": "t_uint256",
        "label": "mapping(uint256 => uint256)",
        "numberOfBytes": "32",
        "value": "t_uint256"
      },
      "t_string_storage": {
        "encoding": "bytes",
        "label": "string",
        "numberOfBytes": "32"
      },
      "t_uint256": {
        "encoding": "inplace",
        "label": "uint256",
        "numberOfBytes": "32"
      }
    }
  }
}